S0160000726F746172795F656E636F6465722E737265632E
S11300000C9434000C9451000C9451000C94510045
S11300100C9451000C9451000C9451000C94510018
S11300200C9451000C9451000C9451000C94510008
S11300300C9451000C9451000C9479010C945100CF
S11300400C9451000C9451000C9451000C945100E8
S11300500C9451000C9451000C9451000C945100D8
S11300600C9451000C94510011241FBECFEFD8E022
S1130070DEBFCDBF11E0A0E0B1E0EAE5F6E002C0EA
S113008005900D92A631B107D9F721E0A6E1B1E0C0
S113009001C01D92AC32B207E1F70E946F000C94CC
S11300A02B030C9400009B01AC0160E271EA87E031
S11300B090E00E94AA02215031093093C500209398
S11300C0C40088E08093C10086E08093C200089554
S11300D09091C00095FFFCCF8093C6000895CF9304
S11300E0DF93CDB7DEB72A970FB6F894DEBF0FBE05
S11300F0CDBF0E94DC000E94E90060E271EA87E063
S113010090E00E9453008AB181608AB98BB18E7FDE
S11301108BB9809122018093210100E080E291E07B
S11301200E94A302811104E020912201022E000CFE
S1130130330B802F90E004962817390721F48BB1F4
S113014081608BB903C08BB18E7F8BB990912201F2
S113015080912101981759F1809122014AE0BE0152
S11301606F5F7F4F082E000C990B0E94F60210E07F
S11301700AC0E1E0F0E0EC0FFD1FE10FF11D80810A
S11301800E9468001F5F812F90E0DE011196FD013F
S113019001900020E9F73197EA1BFB0B8E179F07AC
S11301A040F38DE00E9468008AE00E94680080911C
S11301B0220180932101B2CF7894EEE6F0E08081B1
S11301C0826080838DE387BD82E084BD83E085BD4A
S11301D008951092220170911601609117015091B7
S11301E018014091190130911A0120911B0190913D
S11301F01C0180911D01709323016093240150938D
S113020025014093260130932701209328019093E0
S1130210290180932A01E0E0F1E0A181B2812C91CF
S1130220608181E090E0AC01062E02C0440F551FAE
S11302300A94E2F730E02423352302C0359527954C
S11302406A95E2F7A085B1854C913781032E02C0EF
S1130250880F991F0A94E2F750E08423952302C083
S1130260959587953A95E2F7880F991F822B80938D
S11302702B0120E01CC0822F90E0FC01EE0FFF1F39
S1130280EE0FFF1FEE0FFF1FE81BF90BE050FF4FAF
S1130290A581B6813C9181E090E0008002C0880F86
S11302A0991F0A94E2F7809583238C932F5F233060
S11302B010F30895FC01808190E002C09595879524
S11302C06A95E2F780FD02C081E0089580E0089518
S11302D0CF93DF93EC019B019881990F9883642F4E
S11302E0C9010E945A019881892B8883DF91CF919B
S11302F008951F920F920FB60F921124AF92BF92DE
S1130300CF92DF92EF92FF920F931F932F933F931D
S11303104F935F936F937F938F939F93AF93BF9309
S1130320EF93FF93A0902301B0902401C090250186
S1130330D0902601E0902701F09028010091290136
S113034010912A012091150130E040E050E060E076
S113035070E080E090E00E94CC02A0901601B09082
S11303601701C0901801D0901901E0901A01F09083
S11303701B0100911C0110911D010E94E10209F072
S113038048F5E0E0F1E067857089468580E291E018
S11303900E94680170911601609117015091180133
S11303A04091190130911A0120911B0190911C0177
S11303B080911D01709323016093240150932501C2
S11303C0409326013093270120932801909329011B
S11303D080932A0120911601309117014091180150
S11303E05091190160911A0170911B0180911C01B7
S11303F090911D01AFEF0E94EA0209F57091160178
S113040060911701509118014091190130911A011E
S113041020911B0190911C0180911D017093230177
S113042060932401509325014093260130932701C2
S1130430209328019093290180932A0123C02091BD
S113044016013091170140911801509119016091E2
S11304501A0170911B0180911C0190911D01A1E072
S11304600E94D5022093160130931701409318017E
S11304705093190160931A0170931B0180931C011E
S113048090931D01E0E0F1E0A181B2812C916081A3
S113049081E090E0AC01062E02C0440F551F0A947F
S11304A0E2F730E02423352302C0359527956A9579
S11304B0E2F7A085B1854C913781032E02C0880FE5
S11304C0991F0A94E2F750E08423952302C095957E
S11304D087953A95E2F7880F991F822B90912B010B
S11304E08917C1F090912B019170282F2695291717
S11304F041F0833069F4909122019F5F909322012F
S113050007C0833029F490912201915090932201E5
S113051080932B01FF91EF91BF91AF919F918F91A8
S11305207F916F915F914F913F912F911F910F9107
S1130530FF90EF90DF90CF90BF90AF900F900FBEE1
S11305400F901F901895FC01908181E09F3009F075
S113055080E00895A1E21A2EAA1BBB1BFD010DC069
S1130560AA1FBB1FEE1FFF1FA217B307E407F5075F
S113057020F0A21BB30BE40BF50B661F771F881F3B
S1130580991F1A9469F760957095809590959B01D1
S1130590AC01BD01CF0108952A0D3B1D4C1D5D1D0D
S11305A06E1D7F1D801F911F08950024A7FD0094D8
S11305B02A0F301D401D501D601D701D801D901D93
S11305C008952A153B054C055D056E057F058007DA
S11305D0910708950024A7FD00942A1730054005CB
S11305E0500560057005800590050895BB274A30C5
S11305F031F4992322F4BDE2909581959F4F0C9498
S11306000203BB27FB015527AA27880F991FAA1F9E
S1130610A41710F0A41B83955051B9F7A05DAA3319
S113062008F0A95DA193009779F7B111B1931192E4
S1130630CB010C941B03DC01FC01672F7191772320
S1130640E1F7329704C07C916D9370836291AE1789
S10D0650BF07C8F30895F894FFCF24
S113065A0629002B002A000529002B002A00032959
S109066A002B002A00022F
S9030000FC
